:100000000C9471040C9499040C9499040C94990424
:100010000C9499040C9499040C9499040C949904EC
:100020000C9499040C9499040C9499040C949904DC
:100030000C9499040C9499040C9499040C949904CC
:100040000C949B080C9499040C940B090C94E508EF
:100050000C9499040C9499040C9499040C949904AC
:100060000C9499040C949904474147414C3A204D13
:10007000656D6F72692050656E7568210053554B30
:100080005345533A2044617461206265726861731C
:10009000696C20646974616D626168206B65204CD5
:1000A00061636920000A5B2F2F2F2F2F2F2F2F2FF7
:1000B0002F2F2F2F2F2F2F2F2F2F2F2F2F2F2F2F50
:1000C0002F2F2F2F2F2F2F2F2F2F2F2F2F2F2F5D12
:1000D000000A5B5452414E534D495349204A45440E
:1000E000412E2E2E2054656B616E20746F6D626FF1
:1000F0006C206170612073616A61206C616C752095
:10010000454E54455220756E74756B206B656D625B
:10011000616C695D0047414C414354494320415261
:100120004D4F5259205445524D494E414C204F4E4F
:100130004C494E452100424F4F54494E47204F569F
:100140004552524944452E2E2E003D3D3D3D3D3DFC
:100150003D3D3D3D3D3D3D3D3D3D3D3D3D3D3D3DCF
:100160003D3D3D3D00527573616B202844697369C4
:100170007369686B616E2900446970696E6A616DAC
:10018000202854726F6F7065722F4A656469204928
:10019000443A200054657273656469610053746F5A
:1001A0006B20486162697300202D2053746174755F
:1001B000733A2000202D2053746F6B3A20003D3D90
:1001C0003D3D3D3D3D3D3D3D3D3D3D3D3D3D3D3D5F
:1001D0003D3D3D3D3D3D3D3D0053697374656D20A2
:1001E0006B6F736F6E672E2042656C756D20616456
:1001F000612064617461206974656D2079616E6746
:10020000207465726461667461722E003D3D3D200C
:100210004441465441522053544F4B204152534580
:100220004E414C203D3D3D003D3D3D3D3D3D3D3D34
:100230003D3D3D3D3D3D3D3D3D3D3D3D3D3D3D3DEE
:100240003D004974656D20746964616B2064697454
:10025000656D756B616E2064692064616C616D20F1
:1002600073697374656D2E002D2D2D2D2D2D2D2D63
:100270002D2D2D2D2D2D2D2D2D2D2D2D2D2D2D2DAE
:100280002D00527573616B00446970696E6A616D0F
:10029000206F6C65682054726F6F7065722F4A65AD
:1002A0006469200054657273656469610053746FFA
:1002B0006B20486162697300202853746174757300
:1002C0003A2000536973612053746F6B2020203AE9
:1002D00020004B6F64652053656B746F72203A2069
:1002E000004E616D61204974656D2020203A200028
:1002F000203D3D3D003D3D3D20484153494C20506F
:10030000454E43415249414E3A20004552524F52C8
:100310003A205472616E73616B7369204761676143
:100320006C2C20736973612073746F6B2074696423
:10033000616B206D656E63756B7570692100455248
:10034000524F523A204974656D20746964616B2084
:10035000646974656D756B616E206174617520737D
:10036000746F6B20736564616E67206B6F736F6E63
:10037000672E0053554B5345533A2050656D696EB7
:100380006A616D616E206974656D20626572686175
:1003900073696C2064696361746174210053554B07
:1003A0005345533A204974656D20626572686173E4
:1003B000696C2064696B656D62616C696B616E204C
:1003C0006B65206D61726B617321004552524F5213
:1003D0003A204A756D6C61682079616E67206469A6
:1003E0006B656D62616C696B616E206D656C6562D9
:1003F00069686920646174612070696E6A616D6109
:100400006E21004552524F523A204461746120706F
:10041000656D696E6A616D616E206974656D2074C9
:100420006964616B20646974656D756B616E210030
:100430005B4552524F525D204974656D207469646A
:10044000616B20646974656D756B616E20617461A8
:10045000752073746F6B20736564616E67206B6FBA
:10046000736F6E672E005B4552524F525D204A7586
:100470006D6C6168206C61706F72616E2072757353
:10048000616B206D656C6562696869207369736171
:100490002073746F6B2079616E6720616461210045
:1004A0005B53554B5345535D20446174612069741F
:1004B000656D20727573616B206265726861736926
:1004C0006C20646970697361686B616E206461722D
:1004D000692073746F6B207574616D612E005069B3
:1004E0006C6968616E20746964616B2076616C6907
:1004F000642E2053696C616B616E20636F626120B2
:100500006C6167692E004B6574696B204A756D6C70
:1005100061682053746F6B204177616C3A20004B07
:100520006574696B204B6F64652053656B746F72E3
:1005300020284D616B732033206B6172616B746591
:10054000722C204578616D706C653A2044533120DF
:100550005B446561746820537461725D202F205480
:100560004154205B5461746F6F696E655D293A2058
:10057000004B6574696B204E616D61204974656D37
:1005800020284578616D706C653A204C6967687405
:100590007361626572202F20546865726D616C20F2
:1005A0004465746F6E61746F72293A20004B6574F4
:1005B000696B204944204261727520284D616B733C
:1005C0002034206B6172616B7465722C20457861F8
:1005D0006D706C653A2052324432202F20424238EE
:1005E000293A20000A2D2D2D2054414D424148200A
:1005F0004441544120415253454E414C20424152C6
:1006000055202D2D2D005472616E73616B7369201E
:100610006469626174616C6B616E2E204B656D6202
:10062000616C69206B65206D61726B6173207574FC
:10063000616D612E004B6574696B206E6F6D6F721A
:100640002049442054726F6F706572202F204A65D4
:1006500064692070656D696E6A616D2028416E67FE
:100660006B6120312D323535293A20004D6173758B
:100670006B6B616E206A756D6C6168206974656D65
:100680003A200050696C696820616E676B612028B0
:10069000312F322F332F34293A2000342E2042615B
:1006A00074616C00332E204C61706F722049746548
:1006B0006D20527573616B00322E204B656D626147
:1006C0006C696B616E204974656D00312E20506934
:1006D0006E6A616D204974656D000A50696C6968C5
:1006E00020416B7369205472616E73616B73693A58
:1006F000004B6574696B204944204974656D20790D
:10070000616E672064696361726920284578616D54
:10071000706C653A2052324432202F20534954489D
:10072000293A20004157414954494E4720434F4DF3
:100730004D414E442028312F322F33293A20002DAD
:100740002D2D2D2D2D2D2D2D2D2D2D2D2D2D2D2DD9
:100750002D2D2D2D2D2D2D2D2D2D2D2D2D2D2D2DC9
:100760002D2D2D2D2D2D2D2D2D00205B335D205574
:10077000504C4F414420534348454D415449432038
:100780002854616D62616820446174612042617225
:10079000752900205B325D20455845432050524F5B
:1007A000544F434F4C20202020285472616E7361B7
:1007B0006B7369204974656D2900205B315D20529F
:1007C000554E20444941474E4F53544943532020EE
:1007D0002843656B2053656D756120417273656EAA
:1007E000616C29002D2D2D2D2D2D2D2D2D2D2D2DF7
:1007F0002D2D2D2D2D2D2D2D2D2D2D2D2D2D2D2D29
:100800002D2D2D2D2D2D2D2D2D2D2D2D2D2D002052
:1008100020202020203A3A2047414C41435449436C
:100820002041524D4F5259205445524D494E414C52
:10083000203A3A202020202020005B2F2F2F2F2F1E
:100840002F2F2F2F2F2F2F2F2F2F2F2F2F2F2F2FB8
:100850002F2F2F2F2F2F2F2F2F2F2F2F2F2F2F2FA8
:100860002F2F2F5D00203E204445435259505449BC
:100870004E4720444154415041442E2E2E2E2E2EC0
:100880002E205355434345535300203E2053595384
:10089000434F4D20484F4C4F4E4554204C494E4BF2
:1008A0002E2E2E2E2E2E2045535441424C49534875
:1008B0004544000A5B2F2F2F2F2F2F2F2F2F2F2F45
:1008C0002F2F2F2F2F2F2F2F2F2F2F2F2F2F2F2F38
:1008D0002F2F2F2F2F2F2F2F2F2F2F2F2F5D000058
:1008E000E00D11241FBECFEFD8E0DEBFCDBF26E064
:1008F000A4E2B1E001C01D92A83EB207E1F711E009
:10090000A0E0B1E0E0E8F1E202C005900D92A4326F
:10091000B107D9F714E0C1E7D4E004C02197FE0184
:100920000E94AE0EC037D107C9F70E943D090C9452
:10093000BE100C940000AF92BF92CF92DF92EF9264
:10094000FF920F931F93CF93DF936C017B018B0179
:10095000040F151FEB015E01AE18BF08C017D107C9
:1009600059F06991D601ED91FC910190F081E02D53
:10097000C6010995892B79F7C501DF91CF911F91A8
:100980000F91FF90EF90DF90CF90BF90AF900895C0
:10099000FC01538D448D252F30E0842F90E0821B85
:1009A000930B541710F0CF96089501970895FC010A
:1009B000918D828D981761F0A28DAE0FBF2FB11D62
:1009C0005D968C91928D9F5F9F73928F90E00895BA
:1009D0008FEF9FEF08952FB7F89480914306909181
:1009E0004406A0914506B09146062FBF80934F065E
:1009F00090935006A0935106B093520687E496E078
:100A00000E94D70497FF26C02FB7F8948091430621
:100A100090914406A0914506B09146062FBF4091A3
:100A20004F06509150066091510670915206841BFA
:100A3000950BA60BB70B40914B0650914C0660915D
:100A40004D0670914E0684179507A607B707B0F2BA
:100A50008FEF9FEF0895FC01918D828D981731F0F3
:100A6000828DE80FF11D858D90E008958FEF9FEF47
:100A70000895FC01918D228D892F90E0805C9F4F1D
:100A8000821B91098F739927089587E496E00E944D
:100A9000390521E0892B09F420E0822F089580E0B8
:100AA00090E0892B29F00E94450581110C940000EB
:100AB0000895FC01A48DA80FB92FB11DA35ABF4FF3
:100AC0002C91848D90E001968F739927848FA6894D
:100AD000B7892C93A089B1898C91837080648C93A1
:100AE000938D848D981306C00288F389E02D808150
:100AF0008F7D80830895EF92FF920F931F93CF9382
:100B0000DF93EC0181E0888F9B8D8C8D98131AC048
:100B1000E889F989808185FF15C09FB7F894EE892F
:100B2000FF896083E889F98980818370806480838C
:100B30009FBF81E090E0DF91CF911F910F91FF90D7
:100B4000EF900895F62E0B8D10E00F5F1F4F0F737F
:100B50001127E02E8C8D8E110CC00FB607FCFACF3A
:100B6000E889F989808185FFF5CFCE010E9459057A
:100B7000F1CFEB8DEC0FFD2FF11DE35AFF4FF0820B
:100B80009FB7F8940B8FEA89FB8980818062CFCF71
:100B90000F931F93CF93DF938C01D0E0C0E0F80157
:100BA000EC0FFD1F6491662341F087E496E00E94FC
:100BB0007B05892B11F02196F2CFCE01DF91CF91E9
:100BC0001F910F910895CF93DF93EC01888D8823B7
:100BD000B9F0AA89BB89E889F9898C9185FD03C0A0
:100BE000808186FD0DC00FB607FCF7CF8C9185FF85
:100BF000F2CF808185FFEDCFCE010E945905E9CF6C
:100C0000DF91CF910895CF93DF93209100012F3F83
:100C100051F19DE1299FF0011124EB5DFE4F948D70
:100C20002817D1F0EDE19F3FF1F0E99FD0011124A9
:100C3000AB5DBE4FED016C965C963C91981316C06F
:100C4000E29FF0011124EB5DFE4F348F809124016F
:100C500088839093240107C0909300018091240120
:100C6000848F20932401DF91CF910895292F932F12
:100C7000DACFFC0101900020E9F73197AF01481B62
:100C8000590BBC0187E496E00C949B04CF93DF934F
:100C90000E94C805EC0189E191E00E9439068C0FA1
:100CA0009D1FDF91CF91089581ED90E00E9446064F
:100CB00087E496E00E943905181619062CF487E49B
:100CC00096E00E94D704F4CF87E496E00E943905AD
:100CD000892BD1F387E496E00E943905181619068E
:100CE0002CF487E496E00E94D704F4CF85EA90E0E4
:100CF0000C9446068F929F92AF92BF920F931F93D0
:100D0000CF93DF93CDB7DEB7A1970FB6F894DEBFD0
:100D10000FBECDBF19A2423008F44AE08E010F5D2C
:100D20001F4F842E912CB12CA12CA50194010E945F
:100D30008C0EE62FB901CA01EA30F4F4E05DD80167
:100D4000EE938D01232B242B252B79F790E080E067
:100D5000109719F0CD010E943906A1960FB6F894AC
:100D6000DEBF0FBECDBFDF91CF911F910F91BF901E
:100D7000AF909F908F900895E95CE1CFCF93DF9380
:100D80000E943906EC0189E191E00E9439068C0F3E
:100D90009D1FDF91CF910895CF93DF93FC01448194
:100DA00055816081718187E496E00E949B04EC018B
:100DB00089E191E00E9439068C0F9D1FDF91CF9150
:100DC0000895CF93DF93682F87E496E00E947B0518
:100DD000EC0189E191E00E9439068C0F9D1FDF91A3
:100DE000CF9108950F931F93CF93DF93FC0104815C
:100DF00015810115110539F4FB011082DF91CF91A6
:100E00001F910F910895415051094017510708F45F
:100E10008A01EB01FC0160817181A801CE010E9471
:100E2000AF10C00FD11F1882E9CFCF92DF92EF929F
:100E3000FF92CF93DF936C01990FEE08FF08F7FE46
:100E40001FC06DE287E496E00E947B05EC016627F7
:100E50007727CB016C197D098E099F094AE00E9412
:100E60007A06C80FD91F89E191E00E9439068C0FDC
:100E70009D1FDF91CF91FF90EF90DF90CF9008956D
:100E80004AE0C701B6010E947A06EC01ECCF8F92CE
:100E90009F92AF92BF92CF92DF92EF92FF920F9309
:100EA0001F93CF93DF93C0912401CF3F81F488E655
:100EB00090E0DF91CF911F910F91FF90EF90DF9025
:100EC000CF90BF90AF909F908F900C944606D02FFC
:100ED000F22E5A014B01BC018DE1C89F6001112423
:100EE00086010B5D1E4FF801848D8093240145E03F
:100EF00050E0C8010E94AF1040E150E0B401C601CB
:100F0000865D9E4F0E94AF1044E050E0B501C601DF
:100F1000865C9E4F0E94AF10F801F18ED28FE38E57
:100F200080910001848FC09300018DE790E00E94C2
:100F3000C8056C2F70E090E080E04AE00E947A06DD
:100F400089E191E0DF91CF911F910F91FF90EF9098
:100F5000DF90CF90BF90AF909F908F900C94390608
:100F6000FC0180819181009711F00C94500F08953D
:100F7000AF92BF92CF92DF92EF92FF920F931F93A7
:100F8000CF93DF93DC01CD90DC901197C114D10495
:100F900039F01496CD91DC918C017601209761F4A3
:100FA000DF91CF911F910F91FF90EF90DF90CF9045
:100FB000BF90AF90089575015701BFEFAB1ABB0A00
:100FC000F7018081082E000C990B0E94490E892B95
:100FD00091F72197CC0DDD1D8881082E000C990B0F
:100FE0000E94490E892B29F0CE15DF0510F02197BC
:100FF000F3CFAE014F5F5F4F4E195F09D8011596D1
:101000005C934E931497CE14DF0420F4B701C6010D
:101010000E949610D801ED91FC91119714968D9134
:101020009C91E80FF91F1082BBCF0F931F93CF93B2
:10103000DF93EC0188819981009759F02A813B81E7
:101040002617370730F081E0DF91CF911F910F9184
:1010500008958B016F5F7F4F0E94D90F009759F061
:10106000998388831B830A832C813D81232B59F725
:10107000FC011082E8CF80E0E7CFEF92FF920F9360
:101080001F93CF93DF9300D0CDB7DEB78C01FC0167
:1010900011821082138212821582148270E060E045
:1010A0000E941508F80120813181811132C021157B
:1010B000310519F0C9010E94500FF8011182108208
:1010C00015821482138212820E94EB0497FD29C0BC
:1010D0008A30910531F189831A82F801E480F58024
:1010E000FFEFEF1AFF0AB701C8010E941508882315
:1010F00059F3F8012081318184819581BE016F5FB0
:101100007F4F820F931F0E94A810F801F582E4829E
:10111000DBCF158214826BE171E0C9010E94A81037
:10112000D3CFC8010F900F90DF91CF911F910F91F6
:10113000FF90EF9008951F920F920FB60F92112417
:101140002F933F938F939F93AF93BF9380914306C9
:1011500090914406A0914506B09146063091420612
:1011600023E0230F2D3758F50196A11DB11D2093C3
:1011700042068093430690934406A0934506B0939D
:10118000460680913E0690913F06A0914006B091A0
:1011900041060196A11DB11D80933E0690933F0626
:1011A000A0934006B0934106BF91AF919F918F915C
:1011B0003F912F910F900FBE0F901F90189526E82A
:1011C000230F0296A11DB11DD2CF1F920F920FB611
:1011D0000F9211242F933F934F935F936F937F93BD
:1011E0008F939F93AF93BF93EF93FF9387E496E022
:1011F0000E945905FF91EF91BF91AF919F918F91FF
:101200007F916F915F914F913F912F910F900FBE02
:101210000F901F9018951F920F920FB60F921124E6
:101220002F938F939F93EF93FF93E0915706F09145
:1012300058068081E0915D06F0915E0682FD1BC03C
:101240009081809160068F5F8F7320916106821775
:1012500041F0E0916006F0E0E95BF94F958F8093F3
:101260006006FF91EF919F918F912F910F900FBE8C
:101270000F901F9018958081F4CFCF93DF93CDB757
:10128000DEB7E7970FB6F894DEBF0FBECDBF7894F8
:1012900084B5826084BD84B5816084BD85B582607B
:1012A00085BD85B5816085BD80916E00816080932C
:1012B0006E00109281008091810082608093810095
:1012C00080918100816080938100809180008160A5
:1012D000809380008091B10084608093B100809100
:1012E000B00081608093B00080917A008460809328
:1012F0007A0080917A00826080937A0080917A00EF
:10130000816080937A0080917A00806880937A006F
:101310001092C100E0915706F091580682E0808358
:10132000E0915306F09154061082E0915506F09139
:1013300056068FEC808310925F06E0915B06F09179
:101340005C0686E08083E0915906F0915A06808120
:1013500080618083E0915906F0915A06808188600F
:101360008083E0915906F0915A06808180688083DD
:10137000E0915906F0915A0680818F7D808386E343
:1013800091E00E944606E5E2F1E081E0848F8F5F04
:101390007D968D32D9F78FEF80933D0685E191E000
:1013A0000E9446061DE180E0A82E80E0B82E87E46A
:1013B00096E00E943905181619062CF487E496E089
:1013C0000E94D704F4CF83EB98E00E9446068AE897
:1013D00098E00E94460685E698E00E9446068AE369
:1013E00098E00E9446068FE098E00E94460684EE50
:1013F00097E00E9446068AEB97E00E94460683E942
:1014000097E00E9446068AE697E00E9446068FE330
:1014100097E00E94460684E297E00E94C80587E4B0
:1014200096E00E943905892BD1F3CE0189960E945E
:101430003D08CE0189960E94B8078DA59EA5892BEF
:1014400009F431C2E9A5FAA500E0309709F000815E
:10145000802F0E94E106013309F06EC00091000167
:101460008CE092E00E9446060F3F59F489ED91E02E
:101470000E9446068EEB91E00E9446060E945406AA
:1014800012C28CE191E00E943906802E912C019FBE
:101490006001112496012B5D3E4F7901C9010E9424
:1014A00039068EE191E00E943906C601865D9E4FA5
:1014B0000E94390684EB91E00E94C805F701618D16
:1014C00070E090E080E04AE00E947A0688EA91E0CD
:1014D0000E94C805F701818D811105C08DE991E059
:1014E0000E94460618C0828D811103C084E991E0F4
:1014F000F7CF8130F1F488E791E00E94C805F70149
:10150000638D70E090E080E04AE00E947A0681E21C
:1015100091E00E94BE06189DF001199DF00D112466
:10152000EB5DFE4F048D0F3F09F0ABCF8AE491E0F5
:10153000A3CF85E691E0D4CF023309F07EC287E4E1
:1015400096E00E943905181619062CF487E496E0F7
:101550000E94D704F4CF81EF96E00E94C80587E48B
:1015600096E00E943905892BD1F3CE014D960E9459
:101570003D08CE014D960E94B80789A19AA1892BFA
:1015800009F48DC1CE014D960E94CC0645E050E095
:10159000BE016D5D7F4FCE014D960E94F206F09028
:1015A000000185EF92E00E94C805CE0183960E945B
:1015B000390680EF92E00E94460600E0FFEFFF163A
:1015C00009F468C08F2C912CF19E70011124BE018A
:1015D0006D5D7F4FC7018B5D9E4F0E949F10892BD1
:1015E00009F04CC081EE92E00E94C805C701865DFB
:1015F0009E4F0E94BE0682ED92E00E94C805C70180
:10160000865C9E4F0E94BE0683EC92E00E94C80555
:1016100097012B5D3E4F6901F901618D70E090E00B
:1016200080E04AE00E947A0688EB92E00E94C805BA
:10163000F601818D811105C08DEA92E00E94C805F6
:1016400014C0828D811103C084EA92E0F7CF81300B
:10165000F1F488E892E00E94C805F601638D70E01D
:1016600090E080E04AE00E947A0681E291E00E94E8
:10167000BE0688E692E00E94460601E0189DF00151
:10168000199DF00D1124EB5DFE4FF48C97CF82E88D
:1016900092E0D4CF011104C082E492E00E94460699
:1016A00088E292E00E9446068AED96E00E94460695
:1016B0008BEC96E00E94460688EB96E00E94460678
:1016C00084EA96E00E9446068BE996E00E94460670
:1016D00083E896E00E94C80587E496E00E943905F9
:1016E000892BD1F3CE0147960E943D08CE01479643
:1016F0000E94B8078B8D9C8D892B09F4CCC0EF8993
:10170000F88D00E0309709F00081802F0E94E106FB
:101710008FEC800F833008F08BC187E496E00E9445
:101720003905181619062CF487E496E00E94D704B0
:10173000F4CF8CE696E00E94C80587E496E00E940C
:101740003905892BD1F3CE0141960E943D08CE0187
:1017500041960E94B8078D899E89892B09F497C00C
:1017600089899A89D12C70E0009719F00E940D0E9A
:10177000D62E8D2D972F0E941507013309F0A3C097
:1017800087E496E00E943905181619062CF487E4C0
:1017900096E00E94D704F4CF85E396E00E94C80546
:1017A00087E496E00E943905892BD1F3CE0101969A
:1017B0000E943D08CE0101960E94B8078D819E814E
:1017C000892B09F460C089819A81E12C70E000972F
:1017D00019F00E940D0EE62E8E2D972F0E941507F0
:1017E000F0900001FFEFFF1609F44AC04F2C512C76
:1017F000F19E30011124BE016D5D7F4FC3018B5DF1
:101800009E4F0E949F10892B91F593012B5D3E4FB7
:101810004901F901828D81112AC0818D8D1520F138
:101820008D19818FA301465C5E4FB301665D7E4FCB
:1018300001E02D2DCE0183960E944707F401818D92
:10184000811103C08F2D0E94030683E793E00E945D
:101850004606CE0101960E94B007CE0141960E9435
:10186000B0070E94540617C08BE093E0F0CF149DA0
:10187000F001159DF00D1124EB5DFE4FF48CB2CFFD
:101880008EE393E0E4CFCE0101960E94B007CE0133
:1018900041960E94B007CE0147960E94B007CE0144
:1018A0004D960E94B007CE0189960E94B007A11400
:1018B000B10409F47CCD0E944505882309F472CD5A
:1018C0000E9400006FCDC0900001023309F078C083
:1018D0000FEFFFEFCF1639F18C2C912CC19EC00178
:1018E0001124BE016D5D7F4F8B5D9E4F0E949F1046
:1018F000892B61F4189DF001199DF00D1124EB5D09
:10190000FE4F828D813059F0882359F0189DF001E7
:10191000199DF00D1124EB5DFE4FC48CDACFFC2C29
:10192000F5CF0C2DF3CF2FEF83E094E0F21671F09A
:101930008F2C912C189DF001199DF00D1124EB5D59
:10194000FE4F818D8D1528F48BEC93E00E944606A6
:1019500084CF8D19818F0F3FC1F0109FF0011124AA
:10196000EB5DFE4F818DD80ED18E189DF001199D33
:10197000F00D1124EB5DFE4F818D811103C08F2D81
:101980000E9403068DE993E0E1CFF19EB00111249E
:10199000AB01465C5E4F665D7E4FE38C00E02D2D13
:1019A000CE0183960E944707E0CF86E694E0CECF33
:1019B000169DF001179DF00D1124EB5DFE4FC48CB8
:1019C0003FEFC31691F16C2C712CC19E7001112454
:1019D000BE016D5D7F4FC7018B5D9E4F0E949F10C2
:1019E000892B31F7F701EB5DFE4F4F01828D81119D
:1019F000DFCF818D8D15C8F28D19818FA701465CCF
:101A00005E4FB701665D7E4FE38C02E02D2DCE0167
:101A100083960E944707F401818D8111C9CF8C2DD7
:101A20000E94030680EA94E091CF80E394E08ECF99
:101A300086E096E00E94460614CF033309F0BDC04D
:101A400087E496E00E943905181619062CF487E4FD
:101A500096E00E94D704F4CF84EE95E00E944606FB
:101A60008DEA95E00E94C80587E496E00E9439055A
:101A7000892BD1F3CE0183960E943D08CE01839637
:101A80000E94B8078FA198A5892B09F493C0CE01B5
:101A900083960E94CC0681E795E00E94C80587E402
:101AA00096E00E943905892BD1F3CE014D960E9414
:101AB0003D08CE014D960E94B80789A19AA1892BB5
:101AC00009F474C0CE014D960E94CC068FE195E0DA
:101AD0000E94C80587E496E00E943905892BD1F35E
:101AE000CE0147960E943D08CE0147960E94B80756
:101AF0008B8D9C8D892B09F455C0CE0147960E9491
:101B0000CC0686E095E00E94C80587E496E00E9436
:101B10003905892BD1F3CE0141960E943D08CE01B3
:101B200041960E94B8078D899E89892BB9F18989D0
:101B30009A8960E070E0009711F00E940D0EF62E79
:101B4000972F862F0E94150745E050E0BE01615D8A
:101B50007F4FCE0183960E94F20640E150E0BE0125
:101B60006F5F7F4FCE014D960E94F20644E050E039
:101B7000BE016C5C7F4FCE0147960E94F206E12CBD
:101B800000E02F2DAE014C5C5F4FBE016F5F7F4FB9
:101B9000CE018F960E9447070E945406CE014196BF
:101BA0000E94B007CE0147960E94B007CE014D9625
:101BB0000E94B007CE01839674CE8EED94E05CCC8B
:101BC000E7E4F6E01382128288EE93E0A0E0B0E052
:101BD00084839583A683B7838BE091E09183808390
:101BE00085EC90E09587848784EC90E097878687E2
:101BF00080EC90E0918B808B81EC90E0938B828BDA
:101C000082EC90E0958B848B86EC90E0978B868BB2
:101C1000118E128E138E148E08951F93FC01992736
:101C20008827BC01E89411911032E9F3193010F0C3
:101C30001E30C8F31B3251F01D3249F4689406C0BF
:101C40000E94340E610F711D811D911D1191105361
:101C50001A30B0F33EF490958095709561957F4F62
:101C60008F4F9F4F1F910895592F482F372F262FA1
:101C7000660F771F881F991F660F771F881F991F90
:101C8000620F731F841F951F660F771F881F991F90
:101C9000089591110C94520E803219F0895085509C
:101CA000C8F708959927882708952F923F924F9259
:101CB0005F926F927F928F929F92AF92BF92CF92DC
:101CC000DF92EF92FF920F931F93CF93DF93CDB7E5
:101CD000DEB7CA1BDB0B0FB6F894DEBF0FBECDBF5D
:101CE00009942A88398848885F846E847D848C842E
:101CF0009B84AA84B984C884DF80EE80FD800C8137
:101D00001B81AA81B981CE0FD11D0FB6F894DEBF19
:101D10000FBECDBFED010895A1E21A2EAA1BBB1B79
:101D2000FD010DC0AA1FBB1FEE1FFF1FA217B307A7
:101D3000E407F50720F0A21BB30BE40BF50B661FBD
:101D4000771F881F991F1A9469F760957095809581
:101D500090959B01AC01BD01CF010895EE0FFF1FCF
:101D60000590F491E02D09940F931F93CF93DF9387
:101D70008230910510F482E090E0E091E606F09167
:101D8000E70630E020E0B0E0A0E0309799F42115BC
:101D9000310509F44AC0281B390B24303105D8F528
:101DA0008A819B816115710589F1FB01938382838F
:101DB000FE0111C0408151810281138148175907EA
:101DC000E0F04817590799F4109761F012960C93B8
:101DD000129713961C933296CF01DF91CF911F91EA
:101DE0000F9108950093E6061093E706F4CF2115AE
:101DF000310551F04217530738F0A901DB019A0170
:101E0000BD01DF01F801C1CFEF01F9CF9093E706E3
:101E10008093E606CDCFFE01E20FF31F81939193ED
:101E20002250310939832883D7CF2091E40630919D
:101E3000E506232B41F420910301309104013093F6
:101E4000E5062093E406209101013091020121155D
:101E5000310541F42DB73EB740910501509106017F
:101E6000241B350BE091E406F091E506E217F30739
:101E7000A0F42E1B3F0B2817390778F0AC014E5FFA
:101E80005F4F2417350748F04E0F5F1F5093E5064C
:101E90004093E406819391939FCFF0E0E0E09CCFE4
:101EA000CF93DF930097E9F0FC01329713821282FF
:101EB000A091E606B091E706ED0130E020E0109732
:101EC000A1F420813181820F931F2091E40630918B
:101ED000E5062817390709F061C0F093E506E0939D
:101EE000E406DF91CF910895EA01CE17DF07E8F508
:101EF0004A815B819E0141155105B1F7E901FB83E0
:101F0000EA8349915991C40FD51FEC17FD0761F47D
:101F1000808191810296840F951FE90199838883BE
:101F2000828193819B838A83F0E0E0E012968D9119
:101F30009C9113970097B9F52D913C911197CD0184
:101F40000296820F931F2091E4063091E506281730
:101F5000390739F6309751F51092E7061092E606E8
:101F6000B093E506A093E406BCCFD383C28340813F
:101F70005181840F951FC817D90761F44E5F5F4FD9
:101F800088819981480F591F518340838A819B81A1
:101F9000938382832115310509F0B0CFF093E706D2
:101FA000E093E6069ECFFD01DC01C0CF13821282D2
:101FB000D7CFB0E0A0E0EFEDFFE00C94570E8C011E
:101FC000009751F4CB010E94B40E8C01C801CDB72B
:101FD000DEB7E0E10C94730EFC01E60FF71F9C01E5
:101FE00022503109E217F30708F49DC0D901CD91C1
:101FF000DC911197C617D70798F0C530D10530F39B
:10200000CE0104978617970708F3C61BD70B2297B4
:10201000C193D1936D937C93CF010E94500FD6CF83
:102020005B01AC1ABD0A4C018C0E9D1EA091E60608
:10203000B091E706512C412CF12CE12C109731F591
:102040008091E4069091E5068815990509F05CC039
:102050004616570608F058C0809101019091020180
:10206000009741F48DB79EB740910501509106014C
:10207000841B950BE817F90708F055C0F093E506A7
:10208000E093E406F90171836083A0CF8D919C9168
:10209000119712966C90129713967C901397A8152F
:1020A000B90559F56C0142E0C40ED11CCA14DB0419
:1020B00020F1AC014A195B09DA011296159780F0FC
:1020C0006282738251834083D9016D937C93E114C2
:1020D000F10471F0D7011396FC93EE93129776CF2B
:1020E00022968C0F9D1FF90191838083F301EFCF1E
:1020F000F093E706E093E60669CF4816590608F420
:102100002C017D01D3019ACFCB010E94B40E7C013A
:10211000009749F0AE01B8010E949610C8010E94D4
:10212000500F870153CF10E000E050CFFB01DC01DE
:1021300002C001900D9241505040D8F70895FB0124
:10214000DC018D91019080190110D9F3990B08954C
:10215000FB01DC0101900D920020E1F70895FB01E5
:10216000DC014150504048F001900D920020C9F729
:1021700001C01D9241505040E0F70895F894FFCF00
:10218000FF0000E8068000000000007B059B04C8FB
:1021900004E3053905D7042B050D0A005B005D201B
:0421A0000029000012
:00000001FF
