:100000000C9475050C949D050C949D050C949D0510
:100010000C949D050C949D050C949D050C949D05D8
:100020000C949D050C949D050C949D050C949D05C8
:100030000C949D050C949D050C949D050C949D05B8
:100040000C94E3090C949D050C94530A0C942D0A0E
:100050000C949D050C949D050C949D050C949D0598
:100060000C949D050C949D0553554B5345533A20D4
:100070004461746120626572686173696C206469AF
:1000800074616D626168206B65204C61636920005A
:10009000474147414C3A204D656D6F72692050656C
:1000A0006E7568210047756E616B616E20666974BC
:1000B0007572205570646174652053746F6B206A8B
:1000C000696B6120696E67696E206D656E616D6236
:1000D0006168206B75616E74697461732E000A5BD0
:1000E0004552524F525D20474147414C3A204944C6
:1000F0002053656E6A617461207375646168207451
:10010000657264616674617220646920417273650E
:100110006E616C21000A5B2F2F2F2F2F2F2F2F2F77
:100120002F2F2F2F2F2F2F2F2F2F2F2F2F2F2F2FDF
:100130002F2F2F2F2F2F2F2F2F2F2F2F2F2F2F5DA1
:10014000000A5B5452414E534D495349204A45449D
:10015000412E2E2E2054656B616E20746F6D626F80
:100160006C206170612073616A61206C616C752024
:10017000454E54455220756E74756B206B656D62EB
:10018000616C695D0047414C4143544943204152F1
:100190004D4F5259205445524D494E414C204F4EDF
:1001A0004C494E452100424F4F54494E47204F562F
:1001B0004552524944452E2E2E002D2D2D2D2D2DEC
:1001C0002D2D2D2D2D2D2D2D2D2D2D2D2D2D2D2D5F
:1001D0002D2D2D2D2D2D2D2D2D2D2D2D2D2D2D2D4F
:1001E0002D2D2D2D2D2D2D2D2D2D004B6174656761
:1001F0006F726920527573616B203A20004B6174F5
:1002000065676F726920446970696E6A616D3A2032
:1002100000204B617465676F726920546572736565
:100220006469613A20002D2D2D2D2D2D2D2D2D2D84
:100230002D2D2D2D2D2D2D2D2D2D2D2D2D2D2D2DEE
:100240002D2D2D2D2D2D2D2D2D2D2D2D2D2D2D2DDE
:100250000020556E69740020546F74616C204B75DA
:10026000616E74697461732053656E6A6174612094
:10027000203A00204A656E69730020546F74616CE7
:100280002056617269617369204A656E69732049FD
:1002900074656D203A002D2D2D2D2D2D2D2D2D2DFC
:1002A0002D2D2D2D2D2D2D2D2D2D2D2D2D2D2D2D7E
:1002B0002D2D2D2D2D2D2D2D2D2D2D2D2D2D2D2D6E
:1002C0002D2D2D2D2D2D0020202020203A3A2048A4
:1002D0004F4C4F4E45542053554D4D41525920528D
:1002E00045504F5254203A3A202020003D3D3D3D9C
:1002F0003D3D3D3D3D3D3D3D3D3D3D3D3D3D3D3D2E
:100300003D3D3D3D3D3D00527573616B2028446984
:1003100073697369686B616E2900446970696E6AFC
:10032000616D204F574E45523A20005465727365F7
:100330006469610053746F6B2048616269730020C7
:100340002D205374617475733A2000202D2053744E
:100350006F6B3A20003D3D3D3D3D3D3D3D3D3D3DCA
:100360003D3D3D3D3D3D3D3D3D3D3D3D3D3D3D00FA
:1003700053697374656D206B6F736F6E672E2042C7
:10038000656C756D206164612064617461206974BD
:10039000656D2079616E6720746572646166746151
:1003A000722E003D3D3D204441465441522053545D
:1003B0004F4B20415253454E414C203D3D3D003D69
:1003C0003D3D3D3D3D3D3D3D3D3D3D3D3D3D3D3D5D
:1003D0003D3D3D3D3D3D3D3D004974656D207469A9
:1003E00064616B20646974656D756B616E2064690E
:1003F0002064616C616D2073697374656D2E002DCE
:100400002D2D2D2D2D2D2D2D2D2D2D2D2D2D2D2D1C
:100410002D2D2D2D2D2D2D2D00527573616B00442A
:100420006970696E6A616D206F6C65682054726FC7
:100430006F7065722F4A6564692000546572736538
:100440006469610053746F6B2048616269730020B6
:10045000285374617475733A200053697361205393
:10046000746F6B2020203A20004B6F646520536529
:100470006B746F72203A20004E616D612049746583
:100480006D2020203A2000203D3D3D003D3D3D2097
:10049000484153494C2050454E43415249414E3A00
:1004A00020004552524F523A205472616E73616B74
:1004B000736920476167616C2C20736973612073D5
:1004C000746F6B20746964616B206D656E63756B0E
:1004D00075706921004552524F523A204974656D3A
:1004E00020746964616B20646974656D756B616EFD
:1004F00020617461752073746F6B20736564616E25
:1005000067206B6F736F6E672E0053554B534553C7
:100510003A2050656D696E6A616D616E206974651F
:100520006D20626572686173696C206469636174CF
:100530006174210053554B5345533A204974656DFE
:1005400020626572686173696C2064696B656D62B5
:10055000616C696B616E206B65206D61726B61739C
:1005600021004552524F523A204A756D6C61682005
:1005700079616E672064696B656D62616C696B613E
:100580006E206D656C6562696869206461746120C4
:1005900070696E6A616D616E21004552524F523A28
:1005A00020446174612070656D696E6A616D616E71
:1005B000206974656D20746964616B206469746579
:1005C0006D756B616E21005B4552524F525D204A42
:1005D000756D6C6168206C61706F72616E207275F0
:1005E00073616B206D656C656269686920736973FE
:1005F000612073746F6B2079616E67206164612183
:10060000005B4552524F525D204974656D207469FC
:1006100064616B20646974656D756B616E206174D3
:1006200061752073746F6B20736564616E67206BF6
:100630006F736F6E672E005B53554B5345535D20B0
:1006400044617461206974656D20727573616B20FB
:10065000626572686173696C20646970697361684E
:100660006B616E20646172692073746F6B207574A6
:10067000616D612E0050696C6968616E20746964F7
:10068000616B2076616C69642E2053696C616B61CB
:100690006E20636F6261206C6167692E004B657428
:1006A000696B204A756D6C61682053746F6B2041D3
:1006B00077616C3A20004B6574696B204B6F646501
:1006C0002053656B746F7220284D616B732033204B
:1006D0006B6172616B7465722C204578616D706C12
:1006E000653A20445331205B44656174682053743B
:1006F00061725D202F20544154205B5461746F6FF0
:10070000696E655D293A20004B6574696B204E6106
:100710006D61204974656D20284578616D706C6548
:100720003A204C696768747361626572202F2054A7
:100730006865726D616C204465746F6E61746F7270
:10074000293A20004B6574696B204944204261724C
:100750007520284D616B732034206B6172616B745E
:1007600065722C204578616D706C653A2052324478
:1007700032202F20424238293A20000A2D2D2D20E8
:1007800054414D4241482044415441204152534537
:100790004E414C2042415255202D2D2D0054726166
:1007A0006E73616B7369206469626174616C6B6103
:1007B0006E2E204B656D62616C69206B65206D61EA
:1007C000726B6173207574616D612E004B65746985
:1007D0006B206E616D612054726F6F706572202F97
:1007E000204A6564692070656D696E6A616D2028B4
:1007F0004D616B732035206B6172616B7465722C77
:100800002045783A2052554449293A20004D6173D9
:10081000756B6B616E206A756D6C616820697465BB
:100820006D3A200050696C696820616E676B6120C9
:1008300028312F322F332F34293A2000342E2042F2
:100840006174616C00332E204C61706F72204974AA
:10085000656D20527573616B00322E204B656D62A1
:10086000616C696B616E204974656D00312E20509A
:10087000696E6A616D204974656D000A50696C6922
:100880006820416B7369205472616E73616B736988
:100890003A004B6574696B204944204974656D20AA
:1008A00079616E67206469636172692028457861A7
:1008B0006D706C653A2052324432202F20534954D7
:1008C00048293A200050696C6968206F707369206C
:1008D00028312F32293A2000322E2054616D706960
:1008E0006C6B616E2053756D6D61727920496E7607
:1008F000656E746172697300312E2054616D706988
:100900006C6B616E2053656C7572756820446574FC
:1009100061696C2044617461000A2D2D2D50494C91
:100920004948204D4F44452D2D2D2D2D0041574137
:100930004954494E4720434F4D4D414E44202831A4
:100940002F322F33293A20002D2D2D2D2D2D2D2DF9
:100950002D2D2D2D2D2D2D2D2D2D2D2D2D2D2D2DC7
:100960002D2D2D2D2D2D2D2D2D2D2D2D2D2D2D2DB7
:100970002D2D00205B335D2055504C4F41442053BA
:100980004348454D41544943202854616D62616894
:10099000204461746120426172752900205B325DE0
:1009A00020455845432050524F544F434F4C202030
:1009B0002020285472616E73616B736920497465DD
:1009C0006D2900205B315D2052554E20444941473E
:1009D0004E4F535449435320202843656B205365A1
:1009E0006D756120417273656E616C29002D2D2D2E
:1009F0002D2D2D2D2D2D2D2D2D2D2D2D2D2D2D2D27
:100A00002D2D2D2D2D2D2D2D2D2D2D2D2D2D2D2D16
:100A10002D2D2D2D2D2D2D002020202020203A3A67
:100A20002047414C41435449432041524D4F525974
:100A3000205445524D494E414C203A3A2020202026
:100A40002020005B2F2F2F2F2F2F2F2F2F2F2F2FD7
:100A50002F2F2F2F2F2F2F2F2F2F2F2F2F2F2F2FA6
:100A60002F2F2F2F2F2F2F2F2F2F2F2F5D00203E97
:100A70002044454352595054494E47204441544123
:100A80005041442E2E2E2E2E2E2E205355434345BC
:100A9000535300203E20535953434F4D20484F4C51
:100AA0004F4E4554204C494E4B2E2E2E2E2E2E208E
:100AB00045535441424C4953484544000A5B2F2F4B
:100AC0002F2F2F2F2F2F2F2F2F2F2F2F2F2F2F2F36
:100AD0002F2F2F2F2F2F2F2F2F2F2F2F2F2F2F2F26
:100AE0002F2F2F2F2F2F5D00BB0F11241FBECFEFF5
:100AF000D8E0DEBFCDBF27E0A6E2B1E001C01D9285
:100B0000A83FB207E1F711E0A0E0B1E0E6E3F5E2CB
:100B100002C005900D92A632B107D9F715E0C5E7DE
:100B2000D5E004C02197FE010E948910C437D10787
:100B3000C9F70E94850A0C9499120C940000AF9298
:100B4000BF92CF92DF92EF92FF920F931F93CF93BA
:100B5000DF936C017B018B01040F151FEB015E011C
:100B6000AE18BF08C017D10759F06991D601ED91B1
:100B7000FC910190F081E02DC6010995892B79F750
:100B8000C501DF91CF911F910F91FF90EF90DF9002
:100B9000CF90BF90AF900895FC01538D448D252FC9
:100BA00030E0842F90E0821B930B541710F0CF9607
:100BB000089501970895FC01918D828D981761F039
:100BC000A28DAE0FBF2FB11D5D968C91928D9F5F50
:100BD0009F73928F90E008958FEF9FEF08952FB746
:100BE000F8948091530790915407A0915507B091C4
:100BF00056072FBF80935F0790936007A09361070C
:100C0000B093620787E597E00E94DB0597FF26C057
:100C10002FB7F8948091530790915407A0915507EE
:100C2000B09156072FBF40915F07509160076091C8
:100C3000610770916207841B950BA60BB70B40915F
:100C40005B0750915C0760915D0770915E078417A8
:100C50009507A607B707B0F28FEF9FEF0895FC0145
:100C6000918D828D981731F0828DE80FF11D858D61
:100C700090E008958FEF9FEF0895FC01918D228DF4
:100C8000892F90E0805C9F4F821B91098F73992779
:100C9000089587E597E00E943D0621E0892B09F43D
:100CA00020E0822F089580E090E0892B29F00E94B7
:100CB000490681110C9400000895FC01A48DA80F31
:100CC000B92FB11DA35ABF4F2C91848D90E001968E
:100CD0008F739927848FA689B7892C93A089B189AE
:100CE0008C91837080648C93938D848D981306C04F
:100CF0000288F389E02D80818F7D80830895EF92B3
:100D0000FF920F931F93CF93DF93EC0181E0888FC5
:100D10009B8D8C8D98131AC0E889F989808185FF95
:100D200015C09FB7F894EE89FF896083E889F98937
:100D300080818370806480839FBF81E090E0DF9139
:100D4000CF911F910F91FF90EF900895F62E0B8D8C
:100D500010E00F5F1F4F0F731127E02E8C8D8E1147
:100D60000CC00FB607FCFACFE889F989808185FFAE
:100D7000F5CFCE010E945D06F1CFEB8DEC0FFD2F7C
:100D8000F11DE35AFF4FF0829FB7F8940B8FEA8969
:100D9000FB8980818062CFCF0F931F93CF93DF9326
:100DA0008C01D0E0C0E0F801EC0FFD1F64916623D8
:100DB00041F087E597E00E947F06892B11F021968C
:100DC000F2CFCE01DF91CF911F910F910895CF9374
:100DD000DF93EC01888D8823B9F0AA89BB89E88963
:100DE000F9898C9185FD03C0808186FD0DC00FB609
:100DF00007FCF7CF8C9185FFF2CF808185FFEDCF87
:100E0000CE010E945D06E9CFDF91CF910895CF9387
:100E1000DF93209100012F3F51F193E2299FF001D0
:100E20001124E95DFE4F92A12817D1F0E3E29F3F24
:100E3000F1F0E99FD0011124A95DBE4FED01A2960A
:100E400092963C91981316C0E29FF0011124E95D3F
:100E5000FE4F32A38091260188839093260107C01C
:100E6000909300018091260182A320932601DF91B7
:100E7000CF910895292F932FDACFFC010190002004
:100E8000E9F73197AF01481B590BBC0187E597E0A3
:100E90000C949F05CF93DF930E94CC06EC0189E16F
:100EA00091E00E943D078C0F9D1FDF91CF91089527
:100EB00081E491E00E944A0787E597E00E943D06A1
:100EC000181619062CF487E597E00E94DB05F4CF8D
:100ED00087E597E00E943D06892BD1F387E597E0EF
:100EE0000E943D06181619062CF487E597E00E942B
:100EF000DB05F4CF85E191E00C944A078F929F9235
:100F0000AF92BF920F931F93CF93DF93CDB7DEB70E
:100F1000A1970FB6F894DEBF0FBECDBF19A2423025
:100F200008F44AE08E010F5D1F4F842E912CB12CE6
:100F3000A12CA50194010E946710E62FB901CA01F6
:100F4000EA30F4F4E05DD801EE938D01232B242BDD
:100F5000252B79F790E080E0109719F0CD010E94E1
:100F60003D07A1960FB6F894DEBF0FBECDBFDF914F
:100F7000CF911F910F91BF90AF909F908F90089548
:100F8000E95CE1CFCF93DF930E943D07EC0189E15B
:100F900091E00E943D078C0F9D1FDF91CF91089536
:100FA0000C943D07CF93DF93FC0144815581608110
:100FB000718187E597E00E949F05EC0189E191E04E
:100FC0000E943D078C0F9D1FDF91CF910895CF9315
:100FD000DF93682F87E597E00E947F06EC0189E1A7
:100FE00091E00E943D078C0F9D1FDF91CF910895E6
:100FF000682F70E090E080E04AE00C947E07CF928A
:10100000DF92EF92FF92CF93DF936C01990FEE087E
:10101000FF08F7FE1FC06DE287E597E00E947F069C
:10102000EC0166277727CB016C197D098E099F0992
:101030004AE00E947E07C80FD91F89E191E00E9413
:101040003D078C0F9D1FDF91CF91FF90EF90DF90B8
:10105000CF9008954AE0C701B6010E947E07EC01D7
:10106000ECCF0F931F93CF93DF93FC010481158185
:101070000115110539F4FB011082DF91CF911F9109
:101080000F910895415051094017510708F48A0102
:10109000EB01FC0160817181A801CE010E948A12DE
:1010A000C00FD11F1882E9CFFC0180819181009788
:1010B00011F00C942B1108955F926F927F928F9292
:1010C0009F92AF92BF92CF92DF92EF92FF920F93D7
:1010D0001F93CF93DF93EC014B015A016901F02E6E
:1010E000E1103BC08091000113E28F3FB1F1682E07
:1010F000712C819FC0011124BE01895D9E4F0E9409
:101100007A12892B09F5169DF001179DF00D112417
:10111000E95DFE4F80A1811117C08EED90E00E9425
:101120004A0785EA90E0DF91CF911F910F91FF90E0
:10113000EF90DF90CF90BF90AF909F908F907F9077
:101140006F905F900C944A07169DF001179DF00D6B
:101150001124E95DFE4F82A1C8CF509026018FEF88
:10116000581203C080E990E0DECF93E2599E8001DF
:101170001124F801E95DFE4F3F0182A18093260111
:1011800045E050E0BE01CF010E948A1240E150E0EC
:10119000B401C801845D9E4F0E948A1244E050E071
:1011A000B501C801845C9E4F0E948A1246E050E05F
:1011B000B601C801805C9E4F0E948A12F301F78E2F
:1011C000E0A28091000182A35092000188E690E0A5
:1011D0000E94CC06852D0E94F80789E191E0DF91FD
:1011E000CF911F910F91FF90EF90DF90CF90BF9024
:1011F000AF909F908F907F906F905F900C943D0781
:10120000AF92BF92CF92DF92EF92FF920F931F9314
:10121000CF93DF93DC01CD90DC901197C114D10402
:1012200039F01496CD91DC918C017601209761F410
:10123000DF91CF911F910F91FF90EF90DF90CF90B2
:10124000BF90AF90089575015701BFEFAB1ABB0A6D
:10125000F7018081082E000C990B0E942410892B25
:1012600091F72197CC0DDD1D8881082E000C990B7C
:101270000E942410892B29F0CE15DF0510F021974C
:10128000F3CFAE014F5F5F4F4E195F09D80115963E
:101290005C934E931497CE14DF0420F4B701C6017B
:1012A0000E947112D801ED91FC91119714968D91C5
:1012B0009C91E80FF91F1082BBCF0F931F93CF9320
:1012C000DF93EC0188819981009759F02A813B8155
:1012D0002617370730F081E0DF91CF911F910F91F2
:1012E00008958B016F5F7F4F0E94B411009759F0F2
:1012F000998388831B830A832C813D81232B59F793
:10130000FC011082E8CF80E0E7CFEF92FF920F93CD
:101310001F93CF93DF9300D0CDB7DEB78C01FC01D4
:1013200011821082138212821582148270E060E0B2
:101330000E945D09F80120813181811132C021159F
:10134000310519F0C9010E942B11F8011182108298
:1013500015821482138212820E94EF0597FD29C024
:101360008A30910531F189831A82F801E480F58091
:10137000FFEFEF1AFF0AB701C8010E945D09882339
:1013800059F3F8012081318184819581BE016F5F1D
:101390007F4F820F931F0E948312F801F582E4822F
:1013A000DBCF158214826BE171E0C9010E948312C8
:1013B000D3CFC8010F900F90DF91CF911F910F9164
:1013C000FF90EF9008951F920F920FB60F92112485
:1013D0002F933F938F939F93AF93BF938091530726
:1013E00090915407A0915507B0915607309152073C
:1013F00023E0230F2D3758F50196A11DB11D209331
:1014000052078093530790935407A0935507B093C6
:10141000560780914E0790914F07A0915007B091C9
:1014200051070196A11DB11D80934E0790934F0760
:10143000A0935007B0935107BF91AF919F918F91A7
:101440003F912F910F900FBE0F901F90189526E897
:10145000230F0296A11DB11DD2CF1F920F920FB67E
:101460000F9211242F933F934F935F936F937F932A
:101470008F939F93AF93BF93EF93FF9387E597E08D
:101480000E945D06FF91EF91BF91AF919F918F9167
:101490007F916F915F914F913F912F910F900FBE70
:1014A0000F901F9018951F920F920FB60F92112454
:1014B0002F938F939F93EF93FF93E0916707F091A2
:1014C00068078081E0916D07F0916E0782FD1BC077
:1014D0009081809170078F5F8F73209171078217C1
:1014E00041F0E0917007F0E0E95AF84F958F809352
:1014F0007007FF91EF919F918F912F910F900FBEE9
:101500000F901F9018958081F4CFCF93DF93CDB7C4
:10151000DEB7E7970FB6F894DEBF0FBECDBF789465
:1015200084B5826084BD84B5816084BD85B58260E8
:1015300085BD85B5816085BD80916E008160809399
:101540006E00109281008091810082608093810002
:101550008091810081608093810080918000816012
:10156000809380008091B10084608093B10080916D
:10157000B00081608093B00080917A008460809395
:101580007A0080917A00826080937A0080917A005C
:10159000816080937A0080917A00806880937A00DD
:1015A0001092C100E0916707F091680782E08083A4
:1015B000E0916307F09164071082E0916507F09174
:1015C00066078FEC808310926F07E0916B07F091B4
:1015D0006C0786E08083E0916907F0916A0780815B
:1015E00080618083E0916907F0916A07808188605B
:1015F0008083E0916907F0916A0780818068808329
:10160000E0916907F0916A0780818F7D808386EA87
:1016100091E00E944A07E7E2F1E081E082A38F5F58
:10162000B3968D32D9F78FEF80934D0785E891E01F
:101630000E944A0713E290E0C92E90E0D92E87E578
:1016400097E00E943D06181619062CF487E597E0EE
:101650000E94DB05F4CF8CEB9AE00E944A0783E9F5
:101660009AE00E944A078EE69AE00E944A0783E4C5
:101670009AE00E944A0788E19AE00E944A078DEEAC
:1016800099E00E944A0783EC99E00E944A078CE99E
:1016900099E00E944A0783E799E00E944A0788E49C
:1016A00099E00E944A078DE299E00E94CC0687E506
:1016B00097E00E943D06892BD1F3CE0189960E94C6
:1016C0008509CE0189960E9400098DA59EA5892BCA
:1016D00009F4B9C0E9A5FAA500E0309709F0008146
:1016E000802F0E94E707013309F01EC187E597E0CC
:1016F0000E943D06181619062CF487E597E00E9413
:10170000DB05F4CF89E199E00E944A0788EF98E071
:101710000E944A0788ED98E00E944A0785EC98E00D
:101720000E94CC0687E597E00E943D06892BD1F305
:10173000CE0101960E948509CE0101960E94000902
:101740008D819E81892B91F1E981FA81309771F128
:101750000081802F0E94E707E0900001023309F02A
:1017600082C0B12CA12C912C412C512C3201812C06
:101770002FEFE21629F18394F12C1E9DF0011F9D9D
:10178000F00D1124E95DFE4F878D480E511C611C40
:10179000711C80A181110CC093941E9DF0011F9DAE
:1017A000F00D1124E95DFE4FE2A0E2CF00E0D1CFC1
:1017B000813011F4A394F1CF823079F7B394EDCF57
:1017C00087EC92E00E944A0786E992E00E944A076D
:1017D0008AE792E00E94CC06882D0E94F80783E7F2
:1017E00092E00E944A0787E592E00E94CC064AE018
:1017F000C301B2010E947E0781E592E00E944A0780
:1018000086E292E00E944A0781E192E00E94CC06C3
:10181000892D0E94F8078DEF91E00E94CC068A2D59
:101820000E94F8078BEE91E00E94CC068B2D0E945F
:10183000F8078AEB91E00E944A070E945807CE0100
:1018400001960E945408CE0189960E945408C11442
:10185000D10409F4F4CE0E944906882309F4EACEA3
:101860000E940000E7CE0E2D83EA93E00E944A0713
:101870000F3F39F480E793E00E944A0785E593E043
:10188000DACF8CE191E00E94D007802E912C019F4D
:1018900070011124C701895D9E4F5C010E94D00731
:1018A0008EE191E00E94D007C701845D9E4F0E94A7
:1018B000D0078BE493E00E94CC06F501878D0E944F
:1018C000F8078FE393E00E94CC06F501878D811124
:1018D00005C084E393E00E944A0715C080A18111EE
:1018E00003C08BE293E0F7CF8130D9F48AE193E033
:1018F0000E94CC06C701805C9E4F0E94D00781E207
:1019000091E00E94C207189DF001199DF00D11246D
:10191000E95DFE4F02A10F3F09F0B3CF8CEE92E0DC
:101920008ACF87E093E0D7CF023309F063C287E51F
:1019300097E00E943D06181619062CF487E597E0FB
:101940000E94DB05F4CF82E998E00E94CC0687E58F
:1019500097E00E943D06892BD1F3CE0183960E9429
:101960008509CE0183960E9400098FA198A5892B35
:1019700009F471C1CE0183960E94D20745E050E080
:10198000BE01615D7F4FCE0183960E943108F090C9
:1019900000018CE894E00E94CC06CE018F960E9454
:1019A000D00787E894E00E944A0700E0FFEFFF16A7
:1019B00009F460C0AF2CB12CF19E70011124BE015E
:1019C000615D7F4FC701895D9E4F0E947A12892B0E
:1019D00009F044C088E794E00E94CC06C701845D0A
:1019E0009E4F0E94C20789E694E00E94CC06C70180
:1019F000845C9E4F0E94C2078AE594E00E94CC0658
:101A00009701295D3E4F7901F901878D0E94F80702
:101A10008FE494E00E94CC06F701878D811105C008
:101A200084E494E00E94CC0610C080A1811103C020
:101A30008BE394E0F7CF8130D1F48FE194E00E9402
:101A4000CC06F70181A10E94F80781E291E00E9493
:101A5000C2078FEF93E00E944A0701E01A9DF00150
:101A60001B9DF00D1124E95DFE4FF2A09FCF89E18F
:101A700094E0D8CF011104C089ED93E00E944A0799
:101A80008FEB93E00E944A078BE798E00E944A0799
:101A90008CE698E00E944A0789E598E00E944A0790
:101AA00085E498E00E944A078CE398E00E944A0788
:101AB00084E298E00E94CC0687E597E00E943D060C
:101AC000892BD1F3CE014D960E948509CE014D960A
:101AD0000E94000989A19AA1892B09F4B8C0ED8D53
:101AE000FE8D00E0309709F00081802F0E94E7070B
:101AF0008FEC800F833008F078C187E597E00E9473
:101B00003D06181619062CF487E597E00E94DB05C0
:101B1000F4CF8DE098E00E94CC0687E597E00E9424
:101B20003D06892BD1F3CE0147960E948509CE014F
:101B300047960E9400098B8D9C8D892B09F40FC25A
:101B40008F89988DB12C70E0009719F00E94E80FF2
:101B5000B62E8B2D972F0E94FF07013309F08DC001
:101B600087E597E00E943D06181619062CF487E5D4
:101B700097E00E94DB05F4CF8CEC97E00E94CC0646
:101B800087E597E00E943D06892BD1F3CE0141966F
:101B90000E948509CE0141960E9400098D899E8987
:101BA000892B09F4D8C1CE0141960E94D20746E0A4
:101BB00050E0BE016F5F7F4FCE0141960E94310819
:101BC000A0900001FFEFAF1609F454C06A2C712CED
:101BD000A19E70011124BE01615D7F4FC701895D27
:101BE0009E4F0E947A12892BE1F59701295D3E4FA5
:101BF0004901F90180A1811134C0878D8B1570F1E5
:101C00008B19878FA701445C5E4FB701645D7E4FDF
:101C1000EE24E3940B2D9E012F5F3F4FCE018F9654
:101C20000E945C08F401878D811103C08A2D0E94F7
:101C300007078AE095E00E944A07CE0141960E947C
:101C40005408CE0147960E9454080E945807CE01BE
:101C50004D960E945408CE018396F3CD82EA94E01B
:101C6000EACF169DF001179DF00D1124E95DFE4F9E
:101C7000A2A0A8CF85ED94E0DECFA09000010233B2
:101C800009F079C00FEFFFEFAF1639F18A2C912CD4
:101C9000A19EC0011124BE01615D7F4F895D9E4FF1
:101CA0000E947A12892B61F4189DF001199DF00DA4
:101CB0001124E95DFE4F80A1813059F0882359F04D
:101CC000189DF001199DF00D1124E95DFE4FA2A0B1
:101CD000DACFFA2CF5CF0A2DF3CF2FEF8AE995E072
:101CE000F21671F08F2C912C189DF001199DF00DBA
:101CF0001124E95DFE4F878D8B1528F482E695E06F
:101D00000E944A079ECF8B19878F0F3FC1F0109F0B
:101D1000F0011124E95DFE4F878DB80EB78E189D36
:101D2000F001199DF00D1124E95DFE4F878D8111A1
:101D300003C08F2D0E94070784E395E0E1CFF19E59
:101D4000B0011124AB01445C5E4F645D7E4FE12C19
:101D50000B2D23E231E0CE018F960E945C08DFCF8D
:101D600087EC95E0CDCF169DF001179DF00D112465
:101D7000E95DFE4FA2A03FEFA316A1F16A2C712CE2
:101D8000A19E70011124BE01615D7F4FC701895D75
:101D90009E4F0E947A12892B31F7F701E95DFE4FC1
:101DA0004F0180A18111DFCF878D8B15C8F28B1970
:101DB000878FA701445C5E4FB701645D7E4F82E070
:101DC000E82E0B2D23E231E0CE018F960E945C08B5
:101DD000F401878D8111C7CF8A2D0E94070787E301
:101DE00096E08ECF81E096E08BCF8DE997E00E9460
:101DF0004A072BCF033309F0B7C087E597E00E946D
:101E00003D06181619062CF487E597E00E94DB05BD
:101E1000F4CF8BE797E00E944A0784E497E00E94A2
:101E2000CC0687E597E00E943D06892BD1F3CE01D1
:101E300083960E948509CE0183960E9400098FA196
:101E400098A5892B09F407CFCE0183960E94D2076B
:101E500088E097E00E94CC0687E597E00E943D0667
:101E6000892BD1F3CE014D960E948509CE014D9666
:101E70000E94000989A19AA1892B09F4E8CECE011C
:101E80004D960E94D20786EB96E00E94CC0687E52D
:101E900097E00E943D06892BD1F3CE0147960E9420
:101EA0008509CE0147960E9400098B8D9C8D892B58
:101EB00009F455C0CE0147960E94D2078DE996E0FD
:101EC0000E94CC0687E597E00E943D06892BD1F35E
:101ED000CE0141960E948509CE0141960E940009DB
:101EE0008D899E89892BB9F189899A8960E070E092
:101EF000009711F00E94E80F062F972F862F0E945F
:101F0000FF0745E050E0BE01615D7F4FCE01839643
:101F10000E94310840E150E0BE016F5F7F4FCE016B
:101F20004D960E94310844E050E0BE016C5C7F4F4A
:101F3000CE0147960E943108E12C23E231E0AE0148
:101F40004C5C5F4FBE016F5F7F4FCE018F960E944A
:101F50005C080E945807CE0141960E945408CE01A9
:101F600047960E94540873CE85E796E00E944A0780
:101F70000E94580768CCE7E5F7E01382128288EEEA
:101F800093E0A0E0B0E084839583A683B7838BE0E1
:101F900091E09183808385EC90E09587848784EC41
:101FA00090E09787868780EC90E0918B808B81EC26
:101FB00090E0938B828B82EC90E0958B848B86EC07
:101FC00090E0978B868B118E128E138E148E08954F
:101FD0001F93FC0199278827BC01E89411911032C6
:101FE000E9F3193010F01E30C8F31B3251F01D32E6
:101FF00049F4689406C00E940F10610F711D811D85
:10200000911D119110531A30B0F33EF490958095C4
:10201000709561957F4F8F4F9F4F1F910895592F56
:10202000482F372F262F660F771F881F991F660F9F
:10203000771F881F991F620F731F841F951F660FDC
:10204000771F881F991F089591110C942D108032CD
:1020500019F089508550C8F7089599278827089561
:102060002F923F924F925F926F927F928F929F92A8
:10207000AF92BF92CF92DF92EF92FF920F931F9396
:10208000CF93DF93CDB7DEB7CA1BDB0B0FB6F89447
:10209000DEBF0FBECDBF09942A88398848885F8487
:1020A0006E847D848C849B84AA84B984C884DF80F8
:1020B000EE80FD800C811B81AA81B981CE0FD11DDC
:1020C0000FB6F894DEBF0FBECDBFED010895A1E2BB
:1020D0001A2EAA1BBB1BFD010DC0AA1FBB1FEE1FA2
:1020E000FF1FA217B307E407F50720F0A21BB30BED
:1020F000E40BF50B661F771F881F991F1A9469F769
:1021000060957095809590959B01AC01BD01CF01C4
:102110000895EE0FFF1F0590F491E02D09940F93A1
:102120001F93CF93DF938230910510F482E090E00B
:10213000E091F607F091F70730E020E0B0E0A0E092
:10214000309799F42115310509F44AC0281B390B41
:1021500024303105D8F58A819B816115710589F19B
:10216000FB0193838283FE0111C040815181028172
:10217000138148175907E0F04817590799F4109749
:1021800061F012960C93129713961C933296CF011E
:10219000DF91CF911F910F9108950093F60710934F
:1021A000F707F4CF2115310551F04217530738F0E6
:1021B000A901DB019A01BD01DF01F801C1CFEF01E7
:1021C000F9CF9093F7078093F607CDCFFE01E20F8A
:1021D000F31F819391932250310939832883D7CFFC
:1021E0002091F4073091F507232B41F4209103014E
:1021F000309104013093F5072093F40720910101F9
:10220000309102012115310541F42DB73EB74091BF
:10221000050150910601241B350BE091F407F09164
:10222000F507E217F307A0F42E1B3F0B2817390719
:1022300078F0AC014E5F5F4F2417350748F04E0F22
:102240005F1F5093F5074093F407819391939FCFBD
:10225000F0E0E0E09CCFCF93DF930097E9F0FC0142
:10226000329713821282A091F607B091F707ED0121
:1022700030E020E01097A1F420813181820F931F7C
:102280002091F4073091F5072817390709F061C04C
:10229000F093F507E093F407DF91CF910895EA01F9
:1022A000CE17DF07E8F54A815B819E014115510594
:1022B000B1F7E901FB83EA8349915991C40FD51F16
:1022C000EC17FD0761F4808191810296840F951FC0
:1022D000E90199838883828193819B838A83F0E0DB
:1022E000E0E012968D919C9113970097B9F52D918E
:1022F0003C911197CD010296820F931F2091F40714
:102300003091F5072817390739F6309751F51092B3
:10231000F7071092F607B093F507A093F407BCCF28
:10232000D383C28340815181840F951FC817D90779
:1023300061F44E5F5F4F88819981480F591F518327
:1023400040838A819B81938382832115310509F023
:10235000B0CFF093F707E093F6079ECFFD01DC01C5
:10236000C0CF13821282D7CFB0E0A0E0EAEBF1E158
:102370000C9432108C01009751F4CB010E948F1005
:102380008C01C801CDB7DEB7E0E10C944E10FC0122
:10239000E60FF71F9C0122503109E217F30708F4FA
:1023A0009DC0D901CD91DC911197C617D70798F040
:1023B000C530D10530F3CE0104978617970708F38F
:1023C000C61BD70B2297C193D1936D937C93CF01FA
:1023D0000E942B11D6CF5B01AC1ABD0A4C018C0EAA
:1023E0009D1EA091F607B091F707512C412CF12CBE
:1023F000E12C109731F58091F4079091F50788153D
:10240000990509F05CC04616570608F058C080913F
:10241000010190910201009741F48DB79EB7409160
:10242000050150910601841B950BE817F90708F088
:1024300055C0F093F507E093F407F90171836083C9
:10244000A0CF8D919C91119712966C901297139634
:102450007C901397A815B90559F56C0142E0C40E9C
:10246000D11CCA14DB0420F1AC014A195B09DA0162
:102470001296159780F06282738251834083D9014E
:102480006D937C93E114F10471F0D7011396FC93E2
:10249000EE93129776CF22968C0F9D1FF9019183B0
:1024A0008083F301EFCFF093F707E093F60769CF4E
:1024B0004816590608F42C017D01D3019ACFCB01AF
:1024C0000E948F107C01009749F0AE01B8010E9474
:1024D0007112C8010E942B11870153CF10E000E058
:1024E00050CFFB01DC0102C001900D9241505040E1
:1024F000D8F70895FB01DC018D910190801901103E
:10250000D9F3990B0895FB01DC0101900D92002095
:10251000E1F70895FB01DC014150504048F0019083
:102520000D920020C9F701C01D9241505040E0F7C4
:062530000895F894FFCFAE
:10253600FF0000F8078000000000007F069F05CC22
:1025460005E7063D06DB052F060D0A005B005D204C
:062556000029002D000029
:00000001FF
